:100000000C944B000C941E020C9400000C94000005
:100010000C9400000C9400000C9400000C94000060
:100020000C9400000C9400000C9400000C94000050
:100030000C9400000C9400000C94C6000C9400007A
:100040000C9400000C9400000C9400000C94000030
:100050000C9400001027E80364000A00010000105F
:100060000001100001002532642E002531642000BB
:100070002534640025346420002535640000010027
:100080002D4E414E000080C00100A4017E00020000
:10009000A80186000000F894EE27ECBBF1E0FBBF5E
:1000A000EBBFE5BFF8E1F1BDE1BD8DE0A2E0BB270C
:1000B000ED938A95E9F780E094E0A0E6ED9301974F
:1000C000E9F7E8E8F0E085919591009761F0A59156
:1000D000B59105901590BF01F00105900D92019723
:1000E000E1F7FB01F0CFEFE5EDBFE4E0EEBFC0E6E6
:1000F000D1E00C9489021A93E1E0F4E0E815F905E7
:1001000010F488249924EFEFF3E0E815F90508F4DA
:100110004F01F4011E2F15BB192DE12F0E9424065B
:1001200019F49698979813C0E130A0E0FA0711F4FB
:1001300096980CC0E230A0E0FA0719F4969A9798C6
:1001400006C0E330A0E0FA0711F4969A979AE0E02F
:10015000DF99E1E00E2ED401E6EDF1E00E940E07FA
:10016000E02109F0DF98E0E0DF9BE1E00E2ED40112
:10017000E0E0F2E00E941407E02109F0DF9ADF9945
:1001800002C0C39801C0C39A199108950E9427061E
:100190000E947C08E0916F010E94240611F00C94EB
:1001A0005B01A4B0B5B0E0917201F091730130979A
:1001B000F1F40E943506A0E0B0E088EC91E40E94E2
:1001C000BE07D5010E94410609F010F40C94EA0024
:1001D0000E944806F5017996FF93EF930E94350639
:1001E000AF91BF910E94410610F40E9448060E9400
:1001F0005906EA0FFB1FA082B182E0917001EF5F08
:10020000E0937001A0917001A33018F0E0E0E0935A
:10021000700100E010E020E030E02330E0E03E0735
:1002200050F4F901A4E7B1E00E9461060E0F1F1F10
:100230002F5F3F4FF2CFD801E3E0F0E00E942707A5
:100240008F01AAE0A09FF001A19FF00D5F01D801EE
:10025000EAE0F0E00E9427078F01F5010E94FB060B
:100260005F01D501EAE0F0E00E941F075F01F501A0
:100270000E94FB065F01F2013196EA15FB0540F48E
:10028000F40131974F0131960E9468060E946F0673
:10029000D5011196A415B50528F4F40131964F0146
:1002A0000E946806E1E0E0936F01E0E0E0936C01FA
:1002B000E0936D01BAC0E130A0E0FA0711F00C94B0
:1002C0000C02E0917101A8E8B1E0F0E0EE0FFF1F31
:1002D000AE0FBF1FE4B1F5B1ED93FC93E091710156
:1002E000EF5FE0937101A0917101A53018F0E0E09B
:1002F000E0937101E0E0E0936801E093690120E0A0
:1003000030E02530E0E03E0780F4F901A8E8B1E0F4
:100310000E9461060E947506EA0FFB1FE0936801C8
:10032000F09369012F5F3F4FECCFE0916A01F091AC
:100330006B010E947506EA17FB0710F00C94E801A8
:10034000E1E0F0E0E0937201F0937301E0916A0163
:10035000F0916B01EE0FFF1F0E947506EA17FB0775
:1003600038F5E0919C01F0919D01309701F5D501A0
:10037000E4E6F0E00E941F07DF010E947A060E9477
:100380002707E0939C01F0939D01A0929E01B092FB
:100390009F010E947A06E093A001F093A101E091F1
:1003A0009C01F0919D01E093A201F093A30103C091
:1003B000F40131974F019FDEDD9A0E947F06E4E849
:1003C000F3E0E0936C01F0936D01DE99DD9814C0C9
:1003D000E0917201F0917301309721F0A2E7B1E052
:1003E0000E948506A0917201B0917301A035E3ECE3
:1003F000BE0711F40E946F06ACE6B1E00E948506CC
:10040000A0916C01B0916D01A83EE3E0BE0719F424
:10041000E2E0E0936F0109C0E230A0E0FA0711F4D6
:10042000C4B0D5B0E0E0E0936F01E0916F01E06C03
:10043000E7B9369A0E94830824962FC00E942706A7
:100440001A930A93E0916E01E03011F0820101C02D
:100450008301A0E08299A1E0E0E08399E1E0EA175E
:1004600049F4015010400B39E1E01E0710F000E0A4
:1004700010E008C00F5F1F4F0139E1E01E0710F0C8
:1004800000E911E0E0916E01E03011F0280101C0B7
:1004900038010E947F0609911991E991EFBFF99106
:1004A000E991B991A9919991899179916991F9907D
:1004B0001990099018950E948B06E6E6F0E0FA93F1
:1004C000EA93D501EAE0F0E00E9427070E94900637
:1004D0000E949906EBE6F0E0FA93EA93D501EAE090
:1004E000F0E00E943A0708C00E948B06E0E7F0E0C7
:1004F000FA93EA930E947A06662777270E944507B7
:1005000084E00E94E20528960E948B060E94030464
:100510000895E0E0EBBBE0EEEABBE0E0E8BBE8E03A
:10052000E7BBE0E0E5BBEFEFE4BBE0E0E2BBE0EC23
:10053000E1BBE0E0E3BFE2BFECBFEFBDEEBDEDBD70
:10054000ECBDE7BDE6BDEBBDEABDE9BDE8BDE2BD82
:10055000E5BDE4BDE3BDEBB7E064EBBFE1E0E5BFC3
:10056000E0E0E4BFE0E4EABFE0E0E9BFEBB9E8E1E6
:10057000EAB9E6E8E0BDE0E0E0BDE3E3E9B9E0E8E0
:10058000E8B9E0E0E0BFE0ECE7B9ECE8E6B9E4E1C7
:10059000EA930E9423047894E0E0E5BB969897984C
:1005A000E6E9F0E04F01A7DDE0E0E0937001A09103
:1005B0007001AA3070F40E945906AE0FBF1FE0E030
:1005C000F0E0ED93FC93E0917001EF5FE093700138
:1005D000EECFE0E0E0937001E09371010E946F06BE
:1005E000E4EFF1E0E0936A01F0936B01E0E0E09367
:1005F0006E01DD9AE0939C01E0939D01EAE0F0E05A
:100600002F01E2E0E0936F01369AE0E0EA93EA938B
:100610000E94AC03E0916E01E03009F03201849950
:1006200005C0E0E0E0939C01E0939D01859917C02F
:10063000E0916E010E941A07E0936E01E03019F01C
:10064000DE9ADD9802C0DE98DD9AE0916E01E0301E
:1006500019F44424552401C02301859BFECF0E9438
:100660008B06E4E7F0E0FA93EA93F4010E94900627
:100670000E949906E4E7F0E0FA93EA93F2010E94FF
:1006800090060E94030417DF2FDFE0E0EA93E1E029
:10069000EA930E94AC030E948B060E949C06E091A4
:1006A0009E01F0919F010E9490060E9499060E946F
:1006B0009C06E091A001F091A1010E9490060E9489
:1006C00099060E949C06E091A201F091A3010E946C
:1006D00090060E94030499CFFFCFFFE0FA95F1F74F
:1006E0000895A7B3AF70A7BBC19AC098F6DFC29AAE
:1006F000F4DFA6B3C298F1DFC29AEFDFC298A7FD7C
:10070000F5CF0895A07FAB2BA8BBC29A0E946D03C2
:10071000C2980E946D030895C198A7B3A76FA7BBA5
:10072000B8B3BF70A881EEDFA881A295EBDFC19AB4
:100730000C946004C29A0E946D03E6B3C2980E94B2
:100740006D03E07F08950E946D03F4DFAE2FF2DFAA
:10075000C198E295EA2B08950E9471030E94A106B8
:10076000E855FE4FE081F0E0DF01E981F0E0EA0FBB
:10077000FB1FEA930E948C03E981E093AC01E881BE
:10078000E093AD01229608950E947103E2E0EA939E
:100790000E948C030E947103ECE0EA930E948C0398
:1007A0000E947103E1E0EA930E948C03E0E0E09391
:1007B000AD01E093AC010895EF93FF93A881689495
:1007C000AA3039F0E894E091AE01A091AC01AE17E7
:1007D00060F0E091AD01EF5FE093AD01E0E0EA93FE
:1007E000E091AD01EA93B8DF56F0E091AC01EF5F24
:1007F000E093AC0176DFC09AA881AA938DDFFF91C8
:10080000EF910C9460041A93A981BA81ED91A983A8
:10081000BA831E2FE03019F01A93CEDFF5CF18817E
:1008200023960895AA27BB271197F1F70895C19839
:10083000A7B3A76FA7BBB8B3BF70A8810E948203FC
:10084000C19A0C946004C298C098E881E093AE010C
:100850000E94A106E058FF4FE093AA010E94A10662
:10086000E054FF4FE093AB010E94A4060E94A4064F
:100870000E94A406D7DFE0E2EA93D9DFD3DFE8E203
:100880000E94AA06E4E00E94AA06E5E80E94AA06E1
:10089000A7B3AF70A7BBC19A0E94A303E53011F0C4
:1008A000E0E00EC00E947103E6E0EA930E948C0330
:1008B0000E94C403E1E004C05D9BFECFE881ECB977
:1008C000219608951A930A93AC81BD810E943D0739
:1008D0003097C1F0AA81BB810E943D078F013097FC
:1008E00049F00230E0E01E0760F0F80131978F0117
:1008F000ED93FC93AC81BD810E9485063197AE815A
:10090000A08303C0EE81EA93D7DF1981088127967F
:10091000089526970E947A0810E0EA89FB893196AB
:10092000EA8BFB8B3197E4912E2FE03011F40C947D
:10093000DE05E12F0E94240639F4253211F411E07E
:1009400002C00E94AF0639C1E130A0E0FA07A9F465
:10095000253219F40E94AF062FC112E040E000E0FA
:100960002D3211F401E029C12B3211F44BE225C1E3
:10097000203211F440E221C104C0E230A0E0FA07C5
:1009800039F450E013E0203311F4006816C106C0BA
:10099000E330A0E0FA0711F00C94DD05203310F0ED
:1009A0002A3308F015C0A52FB0E0EAE0F0E0EA0233
:1009B000F0015E2F652F7727A22FB0E0E0E3F0E093
:1009C0000E945507EA1BFB0BDB01EA0F5E2FF5C007
:1009D0000E94BA06E336A0E0FA0749F40E94BD0679
:1009E000E889F989A481AA930E94C306E5C0E33788
:1009F000A0E0FA0741F40E94BD060E94CD060E94C5
:100A00000F061E2F0CC0E037A0E0FA0761F40E9429
:100A1000BD060E94CD060E9419061E2F08600260C6
:100A20000F7730E03FC0E436A0E0FA0721F0E93666
:100A3000A0E0FA0711F4046004C0E537A0E0FA076B
:100A400031F4E4E5F0E0EE83FF8315E011C0E83512
:100A5000A0E0FA0711F4086006C0E837A0E0FA0742
:100A600011F00C94DC05EEE5F0E0EE83FF8314E07A
:100A700002FF14C00E94BD060E94D706AB85AA23C0
:100A80003AF4EA85FB850E94EF06EA87FB874DE290
:100A9000403011F01F5F01C00B7F04C00E94BD06F3
:100AA0000E94D70600FD11C0151778F407FF08C093
:100AB00002FF04C00B7F242F115001C020E301C0AE
:100AC00020E20E94AF065150EFCF312F01FF1AC034
:100AD0003030B9F003FF08C0EE81FF813196EE831C
:100AE000FF833197E49105C0AE81BF81ED91AE8364
:100AF000BF83EA930E94C306503009F05150315031
:100B0000E7CF50C020E3EE81FF810E944107E887D4
:100B1000F987EE81FF813296EE83FF83E885F985C0
:100B2000AA85BB85AE17BF0750F02F5FA885B98592
:100B3000EA85FB85EA1BFB0BEA87FB87EFCF2A33AD
:100B400050F003FF04C00E94BA06379603C00E940B
:100B5000BA06B7962E2F04FD1AC0213320F4A885BB
:100B6000B985119709F409C0531710F000FF01C0AF
:100B700013C020E207FF0BC020E3006102FF07C0A3
:100B80000B7F4A930E94C306503009F051500E94D7
:100B9000AF06503009F051503150A885B9851297F1
:100BA00008F0B0CF00FF08C0503031F05150E0E203
:100BB000EA930E94C306F8CF10E0AFCE0E948108EE
:100BC00064960895FF92F82E22971A930A93DE01F5
:100BD0000E94EB068D01DE0116960E94EB060E9434
:100BE0003D07EA83FB83DE0114960E94EB060E9418
:100BF0003D07FA93EA931A930A93FE013696FA9305
:100C0000EA93E0E0F0E0FA93EA9383DEAA81BB8105
:100C1000E0E0EC93198108812496FF900895A99152
:100C2000B991EE27FF276D91662311F03196FBCF26
:100C30000895AA27BB27E991F9910590002011F0AA
:100C40001196FBCFFD010895F0E0309708950A92C8
:100C50001A92FA926A937A938A939A93AA93BA937E
:100C6000EA93FA93EFB7EA930895F201662777279C
:100C70000E948B07A3E3B3E383E290E40E940C0895
:100C80000895882799270E944C070E945A080895C2
:100C9000F201EE0FFF1FDF01F201F695E795EA0F73
:100CA000FB1F4F010E947B0080E496E00197F1F763
:100CB0000895E0917001A4E7B1E0F0E0EE0FFF1FAE
:100CC0000895EE0FFF1FAE0FBF1F0E943D0708954E
:100CD0000E947B0080E293E00197F1F70895E0E045
:100CE000E0937201E09373010895A0916801B091BF
:100CF00069010895E0916801F09169010895E1E0CA
:100D0000F0E0FA93EA930C94DF06ED91FD913196B1
:100D1000FE93EE930895E0E6F1E0FA93EA930895E6
:100D2000662777270E94450784E00E94E2052896FF
:100D3000F2CF0E940304EFCFE9E7F0E0FA93EA93E1
:100D40000895E881F0E008950E941204E0E3EA9338
:100D50000C941704EA930E948C030C9412042A93B7
:100D6000EF85F889FA93EA93FE013F96FA93EA93A6
:100D70000C946204E22FF0E00895E889F989349731
:100D8000E88BF98B0895EF85F889FA93EA93FE01D1
:100D90003F96FA93EA930C946204A889B989149651
:100DA0000E943D07EE83FF83FA93EA930895A88992
:100DB000B98914960E943D07EA87FB870895E99157
:100DC000F991309639F080EA9FE00197F1F7A89504
:100DD0003197C9F708950024AF0DB01D0895F1951E
:100DE000E195F0400895F09560957095E195FF4F7D
:100DF0006F4F7F4F0895F695E795F695E795F69531
:100E0000E795F695E79508956F2F660F660B762F99
:100E100008958B2F880F880B982F0895AE17BF0762
:100E2000E1E008F0EE270895EA17FB07E1E008F09B
:100E3000EE270895EE23E1E009F0EE270895FA9FEA
:100E4000F02DEB9FF00DEA9FE02DF10D08950024A9
:100E5000112490E1AA0FBB1F001C111C0E1A1F0ABF
:100E600018F40E0E1F1E01C0A1609A9599F7FD019E
:100E7000D0010895ECDFFD010895ED91FC911197EB
:100E800008950590F491E02D08957A936A93FA936A
:100E9000EA930895689401C0E89401D03DD0182EDB
:100EA000862F612D192E972F712D1B2EBF2FF12DFF
:100EB0001A2EAE2FE12D0895552342F4503811F427
:100EC000E0FF04C03196691F791F6BF050E8572787
:100ED00011F45F938FC05F3F31F0660F000C5795A0
:100EE0006795752F08955F9300200AF08FC088C022
:100EF00050E8192E1522880F991F9527550F8795B1
:100F000050E8072E0522660F771F7527550F679546
:100F10000895689401C0E894309760407040B1F043
:100F2000002426F0772312F400945DDF172E7EE173
:100F3000112032F07A95EE0FFF1F661F111CF9CFBA
:100F4000EF2FF62F612D5F93C1DF5F9108954F93CF
:100F5000AF01FD01DA01AB01BC01CA01402D012C3A
:100F6000142E4F910895EA0FFB1F681F0895E09516
:100F7000F0956095EF5FFF4F6F4F08955F93B8DF77
:100F8000903839F1703821F1572F591B13F112F4B1
:100F9000DEDFFACF583118F0AA27BB278827583050
:100FA00028F0AB2FB82F88275850F9CF552329F0B8
:100FB0008695B795A7955A95D9F7502D512562F08A
:100FC000D2DF38F46795F795E795739513F41EC053
:100FD000BEDF7CDF5F910895EA1BFB0B680B51F0CD
:100FE00010F40094C4DF6623A2F3EE0FFF1F661F08
:100FF0007A95CBF7EE27FF27662777275F9108952D
:10100000EFEFFFEF6FE77FEF5F910895EFEFFFEFF7
:101010006FE77FE75F9108955F936ADF703851F360
:10102000903841F301240894791F23F41CF3002025
:101030003AF3ECCF0F921F932F933F934F931127C7
:1010400022279927689FA0018F9F302D410D591F9E
:101050006B9F300D411D591F8E9F27D0BF9F25D0FC
:101060006A9F23D0BE9F1DD0AF9F1BD0AE9F110D96
:10107000291F391F491F591FE32FF42F652F522FA6
:101080004F913F912F911F910F9066232AF0550F9A
:10109000EE1FFF1F661F02C073954BF20DDF5F91BD
:1010A0000895100D211D391F02C0200D311D491F4B
:1010B000591F089599239AF0772342F0971748F023
:1010C00029F4AE17BF07860720F031F09894889472
:1010D000089598940894089518948894089577230F
:1010E000C2F7971798F3A9F7EA17FB07680788F381
:1010F00099F3ECCF5A934A933A932A931A930A930B
:1011000008955D814C813B812A8119810881089570
:00000001FF
