:020000000C945E
:1000020081000C945E030C9400000C9400000C948C
:1000120000000C9400000C9400000C9400000C945E
:1000220000000C9400000C9400000C94B1000C949D
:1000320000000C9400010C94B7010C9400000C9485
:1000420000000C9400000C9400000C9400000C942E
:1000520000001027E80364000A00010000100001FC
:10006200100001002532642E002531640025316420
:100072002E0025303264002A2A2A2A2A2A003E55D6
:100082003D253564003E4D3D253564003E493D2504
:100092003564003E54253564002D3E002020005575
:1000A200005B005D200020560049002041005262A2
:1000B2002000202020200020506F200057003E4EBC
:1000C2003D253564003E4B3D253564003E523D25BD
:1000D2003564003E503D253564003E753D2535644E
:1000E200003E693D2535640001002D4E414E000061
:1000F20080C00100FF01EA0002000502F2000000D8
:10010200F894EE27ECBBF1E0FBBFEBBFE5BFF8E1F3
:10011200F1BDE1BD8DE0A2E0BB27ED938A95E9F741
:1001220080E094E0A0E6ED930197E9F7E4EFF0E0D8
:1001320085919591009761F0A591B59105901590E3
:10014200BF01F00105900D920197E1F7FB01F0CF9D
:10015200EFE5EDBFE4E0EEBFC0E6D1E00C9433047E
:100162000E94FC091A930A931BB10CB1E12FEC71A6
:1001720011F00C94FD000A3209F45524E52DF0E04B
:10018200E05AFE4F0083E6E0E51589F50E940A0A6F
:10019200E2E6F1E0FA93EA930E942D075524E091FA
:1001A2006101E53551F40E940A0A0E94FC064F01E2
:1001B20034018092890190928A01E0916101E934CF
:1001C20031F40E940A0A0E94FC060E940F0AE09182
:1001D2006101ED3431F40E940A0A0E94FC060E9479
:1001E200140AE0916101E33511F4E1E04E2E5394DB
:1001F200E9E1E51509F4552409911991EBC2AA9395
:10020200EA93FA93EFB7EA93E091FE01E030A1F0AE
:10021200E150E093FE01E091FD01F0E0EC50FE4F71
:10022200E081ECB9A091FD01AF5FA093FD01A83080
:1002320019F4E0E0E093FD01E991EFBFF991E99152
:10024200A9911895A091FE01A830E1F3F894E091EC
:10025200FE01E03011F45D9917C0E091FC01F0E07D
:10026200EC50FE4FA881A083A091FC01AF5FA09348
:10027200FC01A83019F4E0E0E093FC01E091FE01FA
:10028200EF5FE093FE0102C0E881ECB978946CC0A4
:100292001A9310E01F5F0E94190AE03029F00E94B1
:1002A200190AEA93CFDFF6CF1881239608951A939D
:1002B200E1E0F4E0EA15FB0510F4AA24BB24EFEF19
:1002C200F3E0EA15FB0508F45F01F5011E2F15BBEB
:1002D2001B2DE12F0E94200A19F49698979813C0BB
:1002E200E130A0E0FA0711F496980CC0E230A0E0E9
:1002F200FA0719F4969A979806C0E330A0E0FA0735
:1003020011F4969A979AE0E0DF99E1E00E2ED5017A
:10031200E2ECF1E00E94E90BE02109F0DF98E0E075
:10032200DF9BE1E00E2ED501E0E0F2E00E94EF0B50
:10033200E02139F0DF9AF894E4E6F0E00E94230A23
:100342007894DF9902C0C39801C0C39A19910895A5
:10035200E881E064E7B985E38A95F1F7369A349B40
:10036200FECF349AE4B1F5B1219608950E94FC09BA
:100372000E94CD0DE091B3010E94200A11F00C946D
:100382005A02C4B0D5B0C0928F01D09290010E949F
:10039200270A19F50E94320AA0E0B0E080EA91E44F
:1003A2000E940B0DD6010E943E0A09F010F40C9433
:1003B200DC010E94450AF6017496FF93EF930E94B6
:1003C200320AAF91BF910E943E0A10F40E94450A80
:1003D200E0E0E093E701E093E8010E94560AEA0FA9
:1003E200FB1FC082D182E091B401EF5FE093B401C0
:1003F200A091B401A33018F0E0E0E093B40100E072
:1004020010E020E030E02330E0E03E0750F4F90154
:10041200AFEBB1E00E945E0A0E0F1F1F2F5F3F4F2E
:10042200F2CFD801E3E0F0E00E942D0C8F01AAE0A8
:10043200A09FF001A19FF00D6F01D8010E94650AF3
:100442008F01F6010E94D10B6F01D601EAE0F0E0C4
:100452000E94FA0B6F01F6010E94D10B6F01F301AA
:100462003096EC15FD0540F4F50131975F013196A8
:100472000E946A0A0E94710AD6011096A615B70553
:1004820028F4F50131965F010E946A0AD60112969C
:10049200A615B70528F4F50131965F010E946A0A94
:1004A200E1E0E093B301E0E0E0939701E09398018B
:1004B200F9C0E130A0E0FA0711F00C943603E091A4
:1004C200B501EF5FE093B501A091B501A53018F039
:1004D200E0E0E093B5010E947B0AEE0FFF1FAE0F32
:1004E200BF1FE4B1F5B1ED93FC93E4B1F5B10E9405
:1004F200810AE0E0E0938701E093880120E030E0A8
:100502002530E0E03E0780F4F901A3EDB1E00E945E
:100512005E0A0E94860AEA0FFB1FE0938701F093AE
:1005220088012F5F3F4FECCF0E948B0A0E94860A00
:10053200EA17FB0710F00C940703E1E0F0E060E03B
:1005420070E0E093B701F093B8016093B901709342
:10055200BA010E94900AE3E00E94220C0E94860ADD
:10056200EA17FB0710F00C94F5020E94950A3097E7
:10057200B9F5D601E8E8F3E10E94FA0B0F010E94F7
:100582007B0A0E945E0AD0010E942D0C0E949A0AE8
:100592000E94900A0E94FA0BDF01E4E6F0E00E945A
:1005A2009F0AE093EB01F093EC01D601E4E6F0E060
:1005B2000E94FA0BDF01E091E901F091EA010E9449
:1005C2009F0AE093ED01F093EE010E94A60AE093E8
:1005D200EF01F093F001A090E901B090EA0103C0AD
:1005E200F50131975F0103C0F50131975F015FDECD
:1005F200DD9AE1E0F0E00E94230AE6EBF3E0E0930B
:100602009701F0939801DE99DD981FC00E94270A96
:1006120051F0A7EBB1E00E94840CEF5FFF4F6F4FE8
:100622007F4F0E94890CA091B701B091B8018091CF
:10063200B9019091BA01A03AE6E8BE07E1E08E075F
:10064200E0E09E0711F40E94710AA7E9B1E00E945E
:10065200AB0AA0919701B0919801A83EE3E0BE07D2
:1006620019F4E2E0E093B3011DC0E230A0E0FA0722
:10067200B1F4E4B1F5B1AFE2B0E00E94FA0BE0935D
:100682008501F0938601A0918501B0918601ECE38A
:10069200F0E00E942D0CE0938501F0938601E0E0EA
:1006A200E093B301E091B301E06CE7B9442009F4AF
:1006B200369A0E94D40D24968DC00E94FC090E9495
:1006C200B10A69F0E091B201E03029F06092F101E3
:1006D2007092F20104C08092F1019092F201A09115
:1006E200F301A23021F40E948B0A0E94BC0AA0E00E
:1006F2008299A1E0E0E08399E1E0EA1731F5A1EF08
:10070200B1E0ED91FD913197FE93EE9331960E9407
:10071200B10A59F00E94C10AAB39E1E0BE0728F0E4
:10072200E0E0E093F101E093F201A091F301A23045
:1007320059F40E94C10AA339E3E1BE0728F0E0E0C0
:10074200E093F101E093F2011FC0A1EFB1E00E943A
:10075200AB0A0E94B10A51F00E94C10AA139E1E03C
:10076200BE0720F0E0E9F1E00E94BC0AA091F3018B
:10077200A23051F40E94C10AA938E3E1BE0720F079
:10078200E8E8F3E10E94BC0A0E94B10AA9F0E091F4
:10079200F101F091F201E0938901F0938A01E09175
:1007A200B201E03029F06090F1017090F20104C0D2
:1007B2008090F1019090F201A091F301A23031F406
:1007C200E091F101F091F2010E940F0AE1E0F0E004
:1007D2000E94230AE991EFBFF991E991B991A99198
:1007E2009991899179916991F99019900990189547
:1007F2000E94C60AE6E6F0E00E94CB0A0E94650A61
:100802000E94D00A0E94E3070E94C60AEBE6F0E0CB
:100812000E94CB0AEAE0F0E00E946A0C0E94D00A31
:100822000E94E3070C94A2070E94C60AEFE6F0E0DA
:100832000E94CB0AE4E6F0E00E942D0C0E94D00A4E
:100842000E94E3070E94C60AE4E7F0E00E94CB0A96
:10085200E4E6F0E00E946A0C0E94D00A0E94E307DC
:100862000C94A207E0E0EBBBE0EEEABBE0E0E8BB01
:10087200E8E0E7BBE0E0E5BBEFEFE4BBE0E0E2BBD2
:10088200E0ECE1BBE0E0E3BFE2BFECBFEFBDEEBDF9
:10089200EDBDECBDE7BDE6BDEBBDEABDE9BDE8BD22
:1008A200E2BDE5BDE4BDE3BDEBB7E064EBBFE1E073
:1008B200E5BFE0E0E4BFE0E4EABFE0E0E9BFEBB9B6
:1008C200E8EDEAB9E6E8E0BDE0E0E0BDE8E0E9B97C
:1008D200E0E8E8B9E0E0E0BFE0ECE7B9ECE8E6B96F
:1008E200E4E1EA930E9402087894E0E0E5BB96987E
:1008F2009798AA24BB24DBDCE0E0E093B401A0914A
:10090200B401AA3070F40E94560AAE0FBF1FE0E095
:10091200F0E0ED93FC93E091B401EF5FE093B4015A
:10092200EECFE0E0E093B401E093B5010E94710ADA
:100932004424E0E9F1E00E94140AE2E8F0E00E94B7
:100942000F0AE0E0E093B201DD9AE093E701E09361
:10095200E801E1E0E093F301E0E0E0938901E09354
:100962008A01E0E2F0E00E94140A66247724E2E0C1
:10097200E093B301369AE0E0E093B601442011F42B
:100982000C944E05E0E4E7B9E4E8E6B9662477247E
:100992000E94C60AE9E7F0E00E94D90A0E94E00A32
:1009A2000E94E50AA0919501B09196010E94EF0B79
:1009B2000E2E0E948B0AA0919101B09192010E9489
:1009C200E90BE02111F40C944005530170DC0E9404
:1009D200EA0A0E94ED0A0E94ED0AE0E0EA93B8DC1E
:1009E2000E94F60A0E94FB0A0E94D30B0E94F60A9A
:1009F2000E94FB0A0E94D50B0E94F60AE2E0F0E098
:100A02000E94230AE1E0EA93A3DC0E94810AA091FA
:100A12009101B0919201E5E00E94220C0E94810AAC
:100A2200EAE00E94040B0E94E50A0E94090BE0E83A
:100A3200F0E00E940E0B0E94E00A0E94C60AE7E85C
:100A4200F0E0FA93EA93E0919501F09196010E9409
:100A5200D00A0E94E00A0E94C60AEEE8F0E00E9474
:100A6200120B0E94E00A0E94C60AE5E9F0E00E9429
:100A7200190B0E94E00AF30131963F0191CF6624DF
:100A820077245301EAE0F0E00E94230A4424E0ECD8
:100A9200E7B9ECE8E6B9369A71CFE091B201E030FD
:100AA20009F04301849913C0849905C0EAE0F0E09B
:100AB2000E94230AF9CFE091F301EF5FE093F30183
:100AC200A091F301A43018F0E1E0E093F3018599DD
:100AD20017C0E091B2010E94F50BE093B201E03041
:100AE20019F0DE9ADD9802C0DE98DD9AE091B2013B
:100AF200E03019F46624772401C03401859BFECFCF
:100B0200E091F301F0E0E130A0E0FA0789F4E1E0DE
:100B12000E94040B0E94C60AEBE9F0E00E94D90A87
:100B22000E94E307E1E00E941D0BEEE9F0E020C025
:100B3200E230A0E0FA0771F4E1E00E94040B0E94A7
:100B4200C60AEEE9F0E00E94D90A0E94E307E1E05A
:100B5200EA9307C0E330A0E0FA07A1F4E1E0EA93E8
:100B6200E0E0EA930E948C070E94C60AEBE9F0E0FB
:100B7200FA93EA9380E00E94BD0924960E94C60A75
:100B82000E94E307E0E00E94040B0E94C60AE1EA29
:100B9200F0E00E94D90A0E94E307E3E00E94040BFE
:100BA2000E94C60AE3EAF0E00E94D90A0E94E30723
:100BB200E0918901F0918A010E94090BE5EAF0E0D7
:100BC2000E94D90A0E94E307DA92CA9211DE0E94B9
:100BD200C60AE8EAF0E00E94D90A0E94E307A0915F
:100BE200F301E1E00E94E40B0E2EE2E00E94E40B2E
:100BF200E02951F1E0E00E941D0BEBEAF0E00E94D7
:100C0200D90A0E94E307E3E00E941D0BE3EAF0E049
:100C12000E94D90A0E94E3070E94900A0E94650A74
:100C22000E94230BE5EAF0E00E94D90A0E94E30742
:100C32000E94860A0E94650A0E94230BEDEAF0E0F8
:100C42000E94D90A0E94E307A091F301A33011F098
:100C52000C947606E0E00E941D0BE0EBF0E00E94AF
:100C6200D90A0E94E3070E94A60A3097B1F00E94B7
:100C7200280B0E94340B0E943D0B0E94420B0E94E3
:100C82004D0B0E94520BE0938B01F0938C010E945A
:100C9200950AFA93EA93ACDD08C00E94C60AE4EB17
:100CA200F0E00E94D90A0E94E3070E94C60AE9EB1B
:100CB200F0E00E94D90A0E94E3070E94280B0E94DA
:100CC2004D0B0E94420B0E94610B0E94520BE0935B
:100CD2008D01F0938E010E94950A0E94090BEEEBA2
:100CE200F0E00E94D90A0E94E3070E94A60A309708
:100CF20071F00E94280B0E94610B0E94420B0E941D
:100D02004D0B0E94630BE0938B01F0938C010E94C8
:100D1200280B0E944D0B0E94420B0E94610B0E9405
:100D2200630BE0938D01F0938E010E94C60AE0E806
:100D3200F0E0FA93EA93F6010E94D00A0E94720B45
:100D42000E94C60AE0ECF0E0FA93EA93F4010E94F2
:100D5200D00A0E94720B0E94C60AEEE8F0E0FA93F3
:100D6200EA930E94A60A0E94D00A0E94720B0E9475
:100D7200C60AE7E8F0E00E94190B0E94720B0E947B
:100D8200C60AE7ECF0E0FA93EA93E0918501F0916C
:100D920086010E94D00A0E94720B0E94C60AEEECE3
:100DA200F0E0FA93EA93E0918B01F0918C010E94BA
:100DB200D00A0E94720B0E94C60AE5EDF0E0FA9397
:100DC200EA93E0918D01F0918E010E94D00A0E9477
:100DD200720B0E94C60AECEDF0E00E940E0B0E941C
:100DE200720B0E94C60AE3EEF0E00E94120B0E9410
:100DF200720BC1CDFFCFB981A881EC91EA930E9419
:100E0200F209EE2311F01196F8CFE894EC91ED324D
:100E120011F4689402C0EB3209F411966627772721
:100E2200EC91EA930E94EA09EE2379F0FB01660F46
:100E3200771F660F771F6E0F7F1F660F771FED916B
:100E4200FF27E0536E0F7F1FEBCFFB011EF4E095EF
:100E5200F095319622960895E991F991A991B99167
:100E6200CD0161916D936623E1F7FC010895A9918B
:100E7200B991EE27FF276D91662311F03196FBCFD2
:100E82000895AA27BB27E991F9910590002011F056
:100E92001196FBCFFD010895FFE0FA95F1F7089551
:100EA200A7B3AF70A7BBC19AC098F6DFC29AF4DFAE
:100EB200A6B3C298F1DFC29AEFDFC298A7FDF5CFC1
:100EC2000895A07FAB2BA8BBC29A0E944D07C2987F
:100ED2000E944D070895C198A7B3A76FA7BBB8B3E7
:100EE200BF70A881EEDFA881A295EBDFC19A0C94B6
:100EF2003A08C29A0E944D07E6B3C2980E944D0773
:100F0200E07F08950E944D07F4DFAE2FF2DFC19813
:100F1200E295EA2B08950E9451070E94770BEB5F3E
:100F2200FD4FE081F0E0DF01E981F0E0EA0FFB1F15
:100F3200EA930E946C07E981E0930902E881E09359
:100F42000A02229608950E945107E2E0EA930E9463
:100F52006C070E945107ECE0EA930E946C070E9422
:100F62005107E1E0EA930E946C07E0E0E0930A0295
:100F7200E09309020895EF93FF93A8816894AA3041
:100F820039F0E894E0910B02A0910902AE1760F0EB
:100F9200E0910A02EF5FE0930A02E0E0EA93E09157
:100FA2000A02EA93B8DF56F0E0910902EF5FE0939C
:100FB200090276DFC09AA881AA938DDFFF91EF9193
:100FC2000C943A081A93A981BA81ED91A983BA8344
:100FD2001E2FE03019F01A93CEDFF5CF1881239639
:100FE2000895AA27BB271197F1F70895C198A7B3CF
:100FF200A76FA7BBB8B3BF70A8810E946207C19A4E
:1010020038C0C298C098E881E0930B020E94770B27
:10101200E058FF4FE09307020E94770BE054FF4F26
:10102200E09308020E947A0B0E947A0B0E947A0BCC
:10103200D8DFE0E2EA93DADFD4DFE8E20E94800B55
:10104200E4E00E94800BE5E80E94800BA7B3AF703A
:10105200A7BBC19A0E948307E53011F0E0E009C006
:101062000E945107E6E0EA930E946C070E94A407DF
:10107200E1E0219608951A930A93AC81BD810E9402
:10108200800C3097C1F0AA81BB810E94800C8F0135
:10109200309749F00230E0E01E0760F0F801319726
:1010A2008F01ED93FC93AC81BD810E94AB0A319715
:1010B200AE81A08304C0EE81EA930E9423011981CC
:1010C20008812796089526970E94CB0D10E0EA89A1
:1010D200FB893196EA8BFB8B3197E4912E2FE0301E
:1010E20011F40C94B909E12F0E94200A39F4253237
:1010F20011F411E002C00E94850B39C1E130A0E079
:10110200FA07A9F4253219F40E94850B2FC112E0C7
:1011120040E000E02D3211F401E029C12B3211F43C
:101122004BE225C1203211F440E221C104C0E23079
:10113200A0E0FA0739F450E013E0203311F400681C
:1011420016C106C0E330A0E0FA0711F00C94B8090A
:10115200203310F02A3308F015C0A52FB0E0EAE0E2
:10116200F0E0EA02F0015E2F652F7727A22FB0E0B0
:10117200E0E3F0E00E94A20CEA1BFB0BDB01EA0FAA
:101182005E2FF5C00E94900BE336A0E0FA0749F407
:101192000E94930BE889F989A481AA930E94990B72
:1011A200E5C0E337A0E0FA0741F40E94930B0E94E6
:1011B200A30B0E9438071E2F0CC0E037A0E0FA07ED
:1011C20061F40E94930B0E94A30B0E9442071E2F00
:1011D200086002600F7730E03FC0E436A0E0FA0713
:1011E20021F0E936A0E0FA0711F4046004C0E53703
:1011F200A0E0FA0731F4E4E5F0E0EE83FF8315E0C6
:1012020011C0E835A0E0FA0711F4086006C0E8371B
:10121200A0E0FA0711F00C94B709EEE5F0E0EE83D6
:10122200FF8314E002FF14C00E94930B0E94AD0BD7
:10123200AB85AA233AF4EA85FB850E94C50BEA87AF
:10124200FB874DE2403011F01F5F01C00B7F04C0ED
:101252000E94930B0E94AD0B00FD11C0151778F48C
:1012620007FF08C002FF04C00B7F242F115001C0EA
:1012720020E301C020E20E94850B5150EFCF312FB5
:1012820001FF1AC03030B9F003FF08C0EE81FF81C0
:101292003196EE83FF833197E49105C0AE81BF8121
:1012A200ED91AE83BF83EA930E94990B503009F00F
:1012B20051503150E7CF50C020E3EE81FF810E94B0
:1012C2008E0CE887F987EE81FF813296EE83FF83E9
:1012D200E885F985AA85BB85AE17BF0750F02F5F59
:1012E200A885B985EA85FB85EA1BFB0BEA87FB87A4
:1012F200EFCF2A3350F003FF04C00E94900B3796C1
:1013020003C00E94900BB7962E2F04FD1AC0213302
:1013120020F4A885B985119709F409C0531710F074
:1013220000FF01C013C020E207FF0BC020E30061F1
:1013320002FF07C00B7F4A930E94990B503009F0BD
:1013420051500E94850B503009F051503150A88500
:10135200B985129708F0B0CF00FF08C0503031F0C5
:101362005150E0E2EA930E94990BF8CF10E0AFCE21
:101372000E94D20D64960895FF92F82E22971A9336
:101382000A93DE010E94C10B8D01DE0116960E94B6
:10139200C10B0E94800CEA83FB83DE0114960E943B
:1013A200C10B0E94800CFA93EA931A930A93FE01EE
:1013B2003696FA93EA93E0E0F0E0FA93EA9383DE5A
:1013C200AA81BB81E0E0EC93198108812496FF9009
:1013D2000895E1E0F991F03310F0FA3308F0EE27C6
:1013E2000895E1E0F991F03229F0F93010F0FE3081
:1013F20008F0EE2708950A921A92FA926A937A9363
:101402008A939A93AA93BA93EA93FA93EFB7EA93D9
:101412000895E9E9F1E0FA93EA930895E0939301DC
:10142200F09394010895E0939501F0939601089545
:10143200A981BA81EE27A10FBE1FEC910895F0E0B9
:1014420030970895FA93EA930C94B50BE091B701A3
:10145200F091B8016091B9017091BA010E94C70D73
:101462000895F301662777270E94D80CA3E3B3E31C
:1014720083E290E40E94590D0895882799270E94DB
:10148200990C0E94A70D0895F301EE0FFF1FDF01D3
:10149200F301F695E795EA0FFB1F5F010E945801E1
:1014A20080E293E00197F1F70895E091B401AFEB88
:1014B200B1E0F0E0EE0FFF1F0895EE0FFF1FAE0F39
:1014C200BF1F0E94800C0895EAE0F0E00E942D0CFC
:1014D20008950E94580188EC90E00197F1F7089571
:1014E200E0E0E093B701E093B801E093B901E09343
:1014F200BA010895E091B501A3EDB1E0F0E00895DD
:10150200E0939101F09392010895A0918701B09127
:1015120088010895E0919301F09194010895A091BA
:101522009301B09194010895E091E701F091E801EF
:101532000895E093E701F093E801F6CF0E942D0CA5
:10154200E093E901F093EA010895E0918701F091B7
:1015520088010895ED91FD913196FE93EE930895E1
:10156200A091F301E1E00E94E40B0E2EE3E00E9461
:10157200E40BE0290895E093F101F093F20108955C
:10158200A091F101B091F2010895E9E7F1E0FA9337
:10159200EA930895FA93EA93AC81BD810895662790
:1015A20077270E94920C84E00E94BD092896EDCF15
:1015B200FA93EA9380E00E94BD092496E6CF0E9446
:1015C2004901EAE0F0E03ECFE0918F01F091900115
:1015D2000895E4E1F0E036CFE0E0EA930E94A90149
:1015E200E0938F01F0939001F4CFE0938F01F09399
:1015F20090010895A0918F01B0919001E5E00E94C1
:10160200220CF3DFE1CFEA93E0E0EA930C948C073B
:10161200FA93EA930E94F903B8CFFA93EA93D4DFDC
:10162200BECFFA93EA93E0919101F0919201B7CF84
:10163200FA93EA936FDFB3CFEA93E1E0EA930E9471
:101642008C07A3CFFA93EA930E9415049ECFF6016A
:1016520066277727E093BB01F093BC016093BD013D
:101662007093BE010895A091BB01B091BC0180911D
:10167200BD019091BE010895E8EEF3E060E070E0F4
:1016820008950E94280CE093BB01F093BC01609383
:10169200BD017093BE01089558DFE5DF6627772705
:1016A20008950E94650CE093BB01F093BC01609326
:1016B200BD017093BE01E091BB01F091BC0139CF35
:1016C200D2DFDACF0E94650CE093BB01F093BC013C
:1016D2006093BD017093BE01E091BB01F091BC012A
:1016E20008950E944901E3E0F0E0ACCEE881F0E029
:1016F20008950E94F207E0E3EA930C94F707EA9355
:101702000E946C070C94F2072A93EF85F889FA93EA
:10171200EA93FE013F96FA93EA930C943C08E22F77
:10172200F0E00895E889F9893497E88BF98B0895F8
:10173200EF85F889FA93EA93FE013F96FA93EA93CA
:101742000C943C08A889B98914960E94800CEE83F7
:10175200FF83FA93EA930895A889B98914960E949F
:10176200800CEA87FB870895E991F991309639F068
:1017720080EA9FE00197F1F7A8953197C9F708959C
:101782000024AF0DB01D0895F195E195F040089544
:10179200F09560957095E195FF4F6F4F7F4F0895DB
:1017A200F695E795F695E795F695E795F695E7951B
:1017B20008956F2F660F660B762F08958B2F880F73
:1017C200880B982F0895EA17E1E009F0EE270895B3
:1017D200AE17BF07E1E008F0EE270895EA17FB070E
:1017E200E1E008F0EE270895EE23E1E009F0EE27AC
:1017F2000895FA9FF02DEB9FF00DEA9FE02DF10D79
:1018020008957A9F702D6B9F700DF89F700DE99F60
:10181200700D6A9F602D710DFB9F600D711DE89F19
:10182200600D711D8827FA9FF02D610D781FEB9FC7
:10183200F00D611D781FEA9FE02DF10D681F781FE2
:1018420008956E2F6A9FF0016B9FF00D089544D0AA
:10185200D8DF0EF49DDF08950024112490E1AA0F31
:10186200BB1F001C111C0E1A1F0A18F40E0E1F1E9D
:1018720001C0A1609A9599F7FD01D00108953F93A7
:101882004F935F93002411244427552730E2AA0F77
:10189200BB1F881F991F001C111C441F551F0E1AC5
:1018A2001F0A460B570B28F40E0E1F1E461F571F0A
:1018B20001C0A1603A9559F7FD01BC01D001CA01EE
:1018C2005F914F913F91089507D0D9DF0EF460DF09
:1018D2000895C2DFFD010895E89477FF02C058DF42
:1018E200689497FF0BC00024A095B09580959095C1
:1018F2001196801D901D00F8039400FA0895ED9151
:10190200FC9111970895ED91FD916D917D9108954E
:101912007E936E93FE93EE9308950590F491E02DDD
:1019220008957A936A93FA93EA930895689401C0AA
:10193200E89401D03DD0182E862F612D192E972FB5
:10194200712D1B2EBF2FF12D1A2EAE2FE12D0895D2
:10195200552342F4503811F4E0FF04C03196691F58
:10196200791F6BF050E8572711F45F938FC05F3FE8
:1019720031F0660F000C57956795752F08955F93A8
:1019820000200AF08FC088C050E8192E1522880F57
:10199200991F9527550F879550E8072E0522660F48
:1019A200771F7527550F67950895689401C0E894CD
:1019B200309760407040B1F0002426F0772312F493
:1019C2000094E6DE172E7EE1112032F07A95EE0FBA
:1019D200FF1F661F111CF9CFEF2FF62F612D5F93AA
:1019E200C1DF5F9108954F93AF01FD01DA01AB01B1
:1019F200BC01CA01402D012C142E4F910895EA0F0B
:101A0200FB1F681F0895E095F0956095EF5FFF4F0B
:101A12006F4F08955F93B8DF903839F1703821F134
:101A2200572F591B13F112F4DEDFFACF583118F099
:101A3200AA27BB278827583028F0AB2FB82F882732
:101A42005850F9CF552329F08695B795A7955A9501
:101A5200D9F7502D512562F0D2DF38F46795F7950A
:101A6200E795739513F41EC0BEDF7CDF5F91089586
:101A7200EA1BFB0B680B51F010F40094C4DF6623E1
:101A8200A2F3EE0FFF1F661F7A95CBF7EE27FF2713
:101A9200662777275F910895EFEFFFEF6FE77FEFFC
:101AA2005F910895EFEFFFEF6FE77FE75F91089592
:101AB2005F936ADF703851F3903841F30124089440
:101AC200791F23F41CF300203AF3ECCF0F921F93FB
:101AD2002F933F934F93112722279927689FA001A5
:101AE2008F9F302D410D591F6B9F300D411D591F86
:101AF2008E9F27D0BF9F25D06A9F23D0BE9F1DD027
:101B0200AF9F1BD0AE9F110D291F391F491F591FAF
:101B1200E32FF42F652F522F4F913F912F911F9159
:101B22000F9066232AF0550FEE1FFF1F661F02C09B
:101B320073954BF20DDF5F910895100D211D391F32
:101B420002C0200D311D491F591F089599239AF093
:101B5200772342F0971748F029F4AE17BF0786079C
:101B620020F031F0989488940895989408940895F8
:101B72001894889408957723C2F7971798F3A9F7D2
:101B8200EA17FB07680788F399F3ECCF30976040B8
:101B9200704008955A934A933A932A931A930A9358
:101BA20008955D814C813B812A81198108810895C4
:00000001FF
