:0A0000000C9433000C9400000C94E3
:10000A0000000C9400000C9400000C9400000C9466
:10001A0000000C9400000C9400000C9400000C9456
:10002A0000000C9451000C9400000C9483000C9472
:10003A0000000C9400000C9400000C9400000C9436
:10004A0000000C9400000C9400001027E8036400E0
:10005A000A0001000010000110000100F894EE27C8
:10006A00ECBBF1E0FBBFEBBFE5BFF8E1F1BDE1BDE1
:10007A008DE0A2E0BB27ED938A95E9F780E094E052
:10008A00A0E6ED930197E9F7EFE5EDBFE4E0EEBFF7
:10009A00C0E6D1E00C94B400EA93FA93EFB7EA937E
:1000AA001A930A931BB10CB1E12FEC7189F4E52D77
:1000BA00F0E0E05AFE4F00835394E8E0E51509F4B6
:1000CA0055247394E8E0E71519F47724689420F826
:1000DA000991199125C01A937720F1F3E42DF0E0E4
:1000EA00E05AFE4F10814394E8E0E41509F44424F1
:1000FA00F8947A947894E12F19910895EA93FA93EF
:10010A00EFB7EA93882061F08A94E92DF0E0E85984
:10011A00FE4FE081ECB99394E8E0E91509F49924DB
:10012A00E991EFBFF991E9911895E8E0E815E9F34B
:10013A00F894882011F45D990DC0E62DF0E0E85995
:10014A00FE4FA881A0836394E8E0E61509F46624CB
:10015A00839402C0E881ECB9789421960895E0E08E
:10016A00EBBBEABBE8BBE7BBE5BBE4BBE2BBE1BB7D
:10017A00E3BFE2BFECBFEFBDEEBDEDBDECBDE7BD39
:10018A00E6BDEBBDEABDE9BDE8BDE2BDE5BDE4BD46
:10019A00E3BDE5BFE4BFE9BFEBB9E8EDEAB9E6E8DC
:1001AA00E0BDE0E0E0BDE8E0E9B9E0E8E8B9E0E0B8
:1001BA00E0BF78940E94EF008EDFBE2EEAE0F0E006
:1001CA00FA93EA930E94F900BA92AFDF0E94EF0015
:1001DA00F1CFFFCFE3E2EA930E949A00EAE0F0E06F
:1001EA00FA93EA930C94F900E991F991309639F06F
:1001FA0080EA9FE00197F1F7A8953197C9F708952A
:00000001FF
