:060000000C945D000C945D
:1000060057020C9400000C9400000C9400000C9411
:1000160000000C9400000C9400000C9400000C945A
:1000260000000C9400000C9400000C9400000C944A
:1000360000000C94D8000C9400000C9400000C9462
:1000460000000C9400000C9400000C940000102793
:10005600E80364000A00010000100001100001001E
:100066002532642E00253164002531642E002530AA
:100076003264002D3E0020200055005B005D20000C
:1000860020560049002041005262200020202020F6
:100096000020506F200057002564000001002D4EFF
:1000A600414E000080C00100B101A2000200B5016E
:1000B600AA000000F894EE27ECBBF1E0FBBFEBBF13
:1000C600E5BFF8E1F1BDE1BD8DE0A2E0BB27ED9310
:1000D6008A95E9F780E094E0A0E6ED930197E9F7C9
:1000E600ECEAF0E085919591009761F0A591B591C4
:1000F60005901590BF01F00105900D920197E1F76B
:10010600FB01F0CFEFE5EDBFE4E0EEBFC0E6D1E0E6
:100116000C942E031A93E1E0F4E0E815F90510F4C7
:1001260088249924EFEFF3E0E815F90508F44F0168
:10013600F4011E2F15BB192DE12F0E949E0719F4FD
:100146009698979813C0E130A0E0FA0711F49698B4
:100156000CC0E230A0E0FA0719F4969A979806C008
:10016600E330A0E0FA0711F4969A979AE0E0DF9957
:10017600E1E00E2ED401E6EDF1E00E942309E02134
:1001860009F0DF98E0E0DF9BE1E00E2ED401E0E02D
:10019600F2E00E942909E02109F0DF9ADF9902C006
:1001A600C39801C0C39A199108950E94A1070E949D
:1001B600070BE09171010E949E0711F00C946D01EE
:1001C600A4B0B5B00E94AF0719F50E94BA07A0E027
:1001D600B0E088EC91E40E94450AD5010E94C6076A
:1001E60009F010F40C94F9000E94CD07F5017996F8
:1001F600FF93EF930E94BA07AF91BF910E94C60783
:1002060010F40E94CD07E0E0E093A401E093A5017D
:100216000E94DE07EA0FFB1FA082B182E091720105
:10022600EF5FE0937201A0917201A33018F0E0E055
:10023600E093720100E010E020E030E02330E0E0DF
:100246003E0750F4F901ACE7B1E00E94E6070E0F55
:100256001F1F2F5F3F4FF2CFD801E3E0F0E00E946F
:1002660067098F01AAE0A09FF001A19FF00D5F0131
:10027600D8010E94ED078F01F5010E940B095F016D
:10028600D501EAE0F0E00E9434095F01F5010E9421
:100296000B095F01F2013196EA15FB0540F4F40102
:1002A60031974F0131960E94F2070E94F907D50156
:1002B6001196A415B50528F4F40131964F010E9454
:1002C600F207E1E0E0937101E0E0E0936E01E09374
:1002D6006F01E1C0E130A0E0FA0711F00C9445028D
:1002E600E0917301EF5FE0937301A0917301A53074
:1002F60018F0E0E0E09373010E940308EE0FFF1F81
:10030600AE0FBF1FE4B1F5B1ED93FC93E0E0E093CF
:100316006801E093690120E030E02530E0E03E0727
:1003260080F4F901A0E9B1E00E94E6070E940908FD
:10033600EA0FFB1FE0936801F09369012F5F3F4FBF
:10034600ECCFE0916C01F0916D010E940908EA176B
:10035600FB0710F00C941602E1E0F0E060E070E0BC
:10036600E0937401F09375016093760170937701C1
:100376000E940E08E3E00E945C090E940908EA1741
:10038600FB0710F00C9406020E9413083097B9F58B
:10039600D501E8E8F3E10E9434090F010E94030841
:1003A6000E94E607D0010E9467090E9418080E9471
:1003B6000E080E943409DF01E4E6F0E00E941D0801
:1003C600E093A801F093A901D501E4E6F0E00E94CC
:1003D6003409DF01E091A601F091A7010E941D08F2
:1003E600E093AA01F093AB010E942408E093AC01CC
:1003F600F093AD018090A6019090A70103C0F4018F
:1004060031974F0103C0F40131974F0183DEDD9A26
:100416000E942908E4E8F3E0E0936E01F0936F018F
:10042600DE99DD981FC00E94AF0751F0A4E7B1E046
:100436000E94BE09EF5FFF4F6F4F7F4F0E94C309B7
:10044600A0917401B0917501809176019091770128
:10045600A03AE6E8BE07E1E08E07E0E09E0711F469
:100466000E94F907AEE6B1E00E942F08A0916E0146
:10047600B0916F01A83EE3E0BE0719F4E2E0E09315
:10048600710109C0E230A0E0FA0711F4C4B0D5B09A
:10049600E0E0E0937101E0917101E06CE7B9369A12
:1004A6000E940E0B24968FC00E94A1070E94350859
:1004B60069F0E0917001E03029F04092AE0150926F
:1004C600AF0104C06092AE017092AF01A091B0017D
:1004D600A23031F4E0916C01F0916D010E94400868
:1004E600A0E08299A1E0E0E08399E1E0EA1731F526
:1004F600AEEAB1E0ED91FD913197FE93EE93319620
:100506000E94350859F00E944508AB39E1E0BE0764
:1005160028F0E0E0E093AE01E093AF01A091B001D6
:10052600A23059F40E944508A339E3E1BE0728F03A
:10053600E0E0E093AE01E093AF011FC0AEEAB1E0A8
:100546000E942F080E94350851F00E944508A139E3
:10055600E1E0BE0720F0E0E9F1E00E944008A0914A
:10056600B001A23051F40E944508A938E3E1BE0764
:1005760020F0E8E8F3E10E9440080E943508A9F05F
:10058600E091AE01F091AF01E0936A01F0936B0147
:10059600E0917001E03029F04090AE015090AF013B
:1005A60004C06090AE017090AF01A091B001A2307E
:1005B60041F4E091AE01F091AF01E0936C01F0934C
:1005C6006D010E942908E991EFBFF991E991B9916E
:1005D600A9919991899179916991F99019900990C8
:1005E60018950E944A08E6E6F0E00E944F080E942D
:1005F600ED070E9454080E947D050E944A08EBE61A
:10060600F0E00E944F08EAE0F0E00E94A4090E9490
:1006160054080E947D050C943C050E944A08EFE6AA
:10062600F0E00E944F08E4E6F0E00E9467090E94AD
:1006360054080E947D050E944A08E4E7F0E00E9403
:100646004F08E4E6F0E00E94A4090E9454080E94C4
:100656007D050C943C05E0E0EBBBE0EEEABBE0E098
:10066600E8BBE8E0E7BBE0E0E5BBEFEFE4BBE0E0DA
:10067600E2BBE0ECE1BBE0E0E3BFE2BFECBFEFBD15
:10068600EEBDEDBDECBDE7BDE6BDEBBDEABDE9BD2A
:10069600E8BDE2BDE5BDE4BDE3BDEBB7E064EBBF9D
:1006A600E1E0E5BFE0E0E4BFE0E4EABFE0E0E9BFA7
:1006B600EBB9E8E1EAB9E6E8E0BDE0E0E0BDE3E396
:1006C600E9B9E0E8E8B9E0E0E0BFE0ECE7B9ECE87A
:1006D600E6B9E4E1EA930E949D057894E0E0E5BB83
:1006E600969897988824992415DDE0E0E0937201A6
:1006F600A0917201AA3070F40E94DE07AE0FBF1FF0
:10070600E0E0F0E0ED93FC93E0917201EF5FE0939F
:100716007201EECFE0E0E0937201E09373010E9474
:10072600F907E2E8F0E0E0936C01F0936D01E0E098
:10073600E0937001DD9AE093A401E093A501E1E066
:10074600E093B001E0E0E0936A01E0936B0144249A
:100756005524E2E0E0937101369AE0917001E030B1
:1007660009F03201849915C0849907C0EAE0F0E0E7
:10077600FA93EA930E94EF08F7CFE091B001EF5F9A
:10078600E093B001A091B001A43018F0E1E0E0934D
:10079600B001859917C0E09170010E942F09E0937E
:1007A6007001E03019F0DE9ADD9802C0DE98DD9A1D
:1007B600E0917001E03019F44424552401C023016E
:1007C600859BFECFE091B001F0E0E130A0E0FA07B2
:1007D60071F40E945D08E9E7F0E00E9464080E9457
:1007E6007D05E1E00E946B08ECE7F0E01BC0E2301B
:1007F600A0E0FA0759F40E945D08ECE7F0E00E94D9
:1008060064080E947D05E1E0EA9307C0E330A0E0BA
:10081600FA0791F4E1E0EA93E0E0EA930E947108B6
:10082600E9E7F0E0FA93EA9380E00E945C072496F9
:100836000E944A080E947D05E0E0EA93EA930E943E
:100846007108EFE7F0E00E9464080E947D05E3E08E
:10085600EA93E0E0EA930E947108E1E8F0E00E9482
:1008660064080E947D05E0916A01F0916B010E9487
:1008760074080E944A08E3E8F0E00E9464080E94B7
:100886007D05BA92AA92ADDE0E944A08E6E8F0E03B
:100896000E9464080E947D05A091B001E1E00E94DB
:1008A6001E090E2EE2E00E941E09E02951F1E0E049
:1008B6000E946B08E9E8F0E00E9464080E947D054A
:1008C600E3E00E946B08E1E8F0E00E9464080E9401
:1008D6007D050E940E080E94ED070E947808E3E855
:1008E600F0E00E9464080E947D050E9409080E94AB
:1008F600ED070E947808EBE8F0E00E9464080E9489
:100906007D05A091B001A33011F00C94D004E0E075
:100916000E946B08EEE8F0E00E9464080E947D05E4
:100926000E942408309789F00E947D080E94890859
:10093600E8EEF3E060E070E00E9492080E949D08F5
:100946000E94A2080E94740808C00E944A08E2E9B0
:10095600F0E00E9464080E947D050E944A08E7E9CB
:10096600F0E00E9464080E947D050E947D080E94B6
:100976009D080E9492080E948908E8EEF3E060E074
:1009860070E00E94A2080E9474080E944A08ECE9DE
:10099600F0E00E9464080E947D050E944A08EEE984
:1009A600F0E0FA93EA93E091B001FF2766277727F4
:1009B6000E94CC0984E00E945C0728960E944A089F
:1009C6000E947D05CACEFFCFFFE0FA95F1F70895A4
:1009D600A7B3AF70A7BBC19AC098F6DFC29AF4DF7F
:1009E600A6B3C298F1DFC29AEFDFC298A7FDF5CF92
:1009F6000895A07FAB2BA8BBC29A0E94E704C298B9
:100A06000E94E7040895C198A7B3A76FA7BBB8B320
:100A1600BF70A881EEDFA881A295EBDFC19A0C9486
:100A2600DA05C29A0E94E704E6B3C2980E94E70478
:100A3600E07F08950E94E704F4DFAE2FF2DFC1984D
:100A4600E295EA2B08950E94EB040E94B108EB544C
:100A5600FE4FE081F0E0DF01E981F0E0EA0FFB1FE5
:100A6600EA930E940605E981E093B901E881E093E3
:100A7600BA01229608950E94EB04E2E0EA930E94EE
:100A860006050E94EB04ECE0EA930E9406050E942C
:100A9600EB04E1E0EA930E940605E0E0E093BA0188
:100AA600E093B9010895EF93FF93A8816894AA3063
:100AB60039F0E894E091BB01A091B901AE1760F05E
:100AC600E091BA01EF5FE093BA01E0E0EA93E091CA
:100AD600BA01EA93B8DF56F0E091B901EF5FE0930F
:100AE600B90176DFC09AA881AA938DDFFF91EF91B5
:100AF6000C94DA051A93A981BA81ED91A983BA8378
:100B06001E2FE03019F01A93CEDFF5CF1881239609
:100B16000895AA27BB271197F1F70895C198A7B39F
:100B2600A76FA7BBB8B3BF70A8810E94FC04C19A87
:100B36000C94DA05C298C098E881E093BB010E9444
:100B4600B108E058FF4FE093B7010E94B108E054A6
:100B5600FF4FE093B8010E94B4080E94B4080E94B7
:100B6600B408D7DFE0E2EA93D9DFD3DFE8E20E94F8
:100B7600BA08E4E00E94BA08E5E80E94BA08A7B3FA
:100B8600AF70A7BBC19A0E941D05E53011F0E0E0E9
:100B96000EC00E94EB04E6E0EA930E9406050E945E
:100BA6003E05E1E004C05D9BFECFE881ECB92196ED
:100BB60008951A930A93AC81BD810E94BA093097B1
:100BC600C1F0AA81BB810E94BA098F01309749F012
:100BD6000230E0E01E0760F0F80131978F01ED93D7
:100BE600FC93AC81BD810E942F083197AE81A08312
:100BF60003C0EE81EA93D7DF19810881279608950D
:100C060026970E94050B10E0EA89FB893196EA8B4C
:100C1600FB8B3197E4912E2FE03011F40C9458079A
:100C2600E12F0E949E0739F4253211F411E002C02B
:100C36000E94BF0839C1E130A0E0FA07A9F42532C5
:100C460019F40E94BF082FC112E040E000E02D32E7
:100C560011F401E029C12B3211F44BE225C12032F7
:100C660011F440E221C104C0E230A0E0FA0739F4F1
:100C760050E013E0203311F4006816C106C0E330DB
:100C8600A0E0FA0711F00C945707203310F02A332E
:100C960008F015C0A52FB0E0EAE0F0E0EA02F001A6
:100CA6005E2F652F7727A22FB0E0E0E3F0E00E94E9
:100CB600DC09EA1BFB0BDB01EA0F5E2FF5C00E9485
:100CC600CA08E336A0E0FA0749F40E94CD08E8898D
:100CD600F989A481AA930E94D308E5C0E337A0E06E
:100CE600FA0741F40E94CD080E94DD080E94890798
:100CF6001E2F0CC0E037A0E0FA0761F40E94CD0871
:100D06000E94DD080E9493071E2F086002600F777D
:100D160030E03FC0E436A0E0FA0721F0E936A0E073
:100D2600FA0711F4046004C0E537A0E0FA0731F4CD
:100D3600E4E5F0E0EE83FF8315E011C0E835A0E0BE
:100D4600FA0711F4086006C0E837A0E0FA0711F0C8
:100D56000C945607EEE5F0E0EE83FF8314E002FF05
:100D660014C00E94CD080E94E708AB85AA233AF476
:100D7600EA85FB850E94FF08EA87FB874DE2403043
:100D860011F01F5F01C00B7F04C00E94CD080E94B6
:100D9600E70800FD11C0151778F407FF08C002FF29
:100DA60004C00B7F242F115001C020E301C020E2B4
:100DB6000E94BF085150EFCF312F01FF1AC03030CB
:100DC600B9F003FF08C0EE81FF813196EE83FF8301
:100DD6003197E49105C0AE81BF81ED91AE83BF83AB
:100DE600EA930E94D308503009F051503150E7CFB2
:100DF60050C020E3EE81FF810E94C809E887F98789
:100E0600EE81FF813296EE83FF83E885F985AA8518
:100E1600BB85AE17BF0750F02F5FA885B985EA8559
:100E2600FB85EA1BFB0BEA87FB87EFCF2A3350F0E3
:100E360003FF04C00E94CA08379603C00E94CA086E
:100E4600B7962E2F04FD1AC0213320F4A885B98544
:100E5600119709F409C0531710F000FF01C013C021
:100E660020E207FF0BC020E3006102FF07C00B7FF3
:100E76004A930E94D308503009F051500E94BF088F
:100E8600503009F051503150A885B985129708F0B5
:100E9600B0CF00FF08C0503031F05150E0E2EA9385
:100EA6000E94D308F8CF10E0AFCE0E940C0B6496D8
:100EB6000895FF92F82E22971A930A93DE010E9454
:100EC600FB088D01DE0116960E94FB080E94BA09F6
:100ED600EA83FB83DE0114960E94FB080E94BA098E
:100EE600FA93EA931A930A93FE013696FA93EA93D3
:100EF600E0E0F0E0FA93EA9383DEAA81BB81E0E0CA
:100F0600EC93198108812496FF900895A991B991CF
:100F1600EE27FF276D91662311F03196FBCF0895DA
:100F2600AA27BB27E991F9910590002011F01196A7
:100F3600FBCFFD010895F0E0309708950A921A92CA
:100F4600FA926A937A938A939A93AA93BA93EA93B4
:100F5600FA93EFB7EA930895E0917401F091750161
:100F660060917601709177010E94010B0895F2015C
:100F7600662777270E94120AA3E3B3E383E290E48D
:100F86000E94930A0895882799270E94D3090E94F0
:100F9600E10A0895F201EE0FFF1FDF01F201F69557
:100FA600E795EA0FFB1F4F010E948D0080E496E053
:100FB6000197F1F70895E0917201ACE7B1E0F0E036
:100FC600EE0FFF1F0895EE0FFF1FAE0FBF1F0E940B
:100FD600BA090895EAE0F0E00E94670908950E94C0
:100FE6008D0080E293E00197F1F70895E0E0E09349
:100FF6007401E0937501E0937601E093770108951B
:10100600E0917301A0E9B1E0F0E00895A0916801D4
:10101600B09169010895A0916C01B0916D01089598
:10102600E091A401F091A5010895E093A401F09345
:10103600A501F6CF0E946709E093A601F093A701E8
:101046000895E0916801F09169010895E1E0F0E00A
:10105600FA93EA930C94EF08ED91FD913196FE9385
:10106600EE930895A091B001E1E00E941E090E2EB4
:10107600E3E00E941E09E0290895E093AE01F09393
:10108600AF010895A091AE01B091AF010895E0E6D9
:10109600F1E0FA93EA930895FA93EA93AC81BD815D
:1010A6000895662777270E94CC0984E00E945C0792
:1010B6002896EDCFE1E0EA93E0E0EA930E94260568
:1010C600E6CFFA93EA9380E00E945C072496DFCF8E
:1010D600EA93E1E0EA930E942605D9CF0E9426050D
:1010E600D6CFFA93EA930C94F402FA93EA930E9409
:1010F6001003CDCFF50166277727E0937801F093AB
:10110600790160937A0170937B010895A09178012B
:10111600B091790180917A0190917B0108950E94A6
:101126006209E0937801F093790160937A017093F4
:101136007B01089586DFEADF6627772708950E94F8
:101146009F09E0937801F093790160937A01709397
:101156007B01E0917801F091790167CFE881F0E0B9
:1011660008950E948C05E0E3EA930C949105EA93B6
:101176000E9406050C948C052A93EF85F889FA934C
:10118600EA93FE013F96FA93EA930C94DC05E22F6C
:10119600F0E00895E889F9893497E88BF98B08958A
:1011A600EF85F889FA93EA93FE013F96FA93EA935C
:1011B6000C94DC05A889B98914960E94BA09EE83B5
:1011C600FF83FA93EA930895A889B98914960E9431
:1011D600BA09EA87FB870895E991F991309639F0C3
:1011E60080EA9FE00197F1F7A8953197C9F708952E
:1011F6000024AF0DB01D0895F195E195F0400895D6
:10120600F09560957095E195FF4F6F4F7F4F08956C
:10121600F695E795F695E795F695E795F695E795AC
:1012260008956F2F660F660B762F08958B2F880F04
:10123600880B982F0895EA17E1E009F0EE27089544
:10124600AE17BF07E1E008F0EE270895EA17FB079F
:10125600E1E008F0EE270895EE23E1E009F0EE273D
:101266000895FA9FF02DEB9FF00DEA9FE02DF10D0A
:1012760008957A9F702D6B9F700DF89F700DE99FF2
:10128600700D6A9F602D710DFB9F600D711DE89FAB
:10129600600D711D8827FA9FF02D610D781FEB9F59
:1012A600F00D611D781FEA9FE02DF10D681F781F74
:1012B60008956E2F6A9FF0016B9FF00D089544D03C
:1012C600D8DF0EF49DDF08950024112490E1AA0FC3
:1012D600BB1F001C111C0E1A1F0A18F40E0E1F1E2F
:1012E60001C0A1609A9599F7FD01D00108953F9339
:1012F6004F935F93002411244427552730E2AA0F09
:10130600BB1F881F991F001C111C441F551F0E1A56
:101316001F0A460B570B28F40E0E1F1E461F571F9B
:1013260001C0A1603A9559F7FD01BC01D001CA017F
:101336005F914F913F91089507D0D9DF0EF460DF9A
:101346000895C2DFFD010895E89477FF02C058DFD3
:10135600689497FF0BC00024A095B0958095909552
:101366001196801D901D00F8039400FA0895ED91E2
:10137600FC9111970895ED91FD916D917D910895E0
:101386007E936E93FE93EE9308950590F491E02D6F
:1013960008957A936A93FA93EA930895689401C03C
:1013A600E89401D03DD0182E862F612D192E972F47
:1013B600712D1B2EBF2FF12D1A2EAE2FE12D089564
:1013C600552342F4503811F4E0FF04C03196691FEA
:1013D600791F6BF050E8572711F45F938FC05F3F7A
:1013E60031F0660F000C57956795752F08955F933A
:1013F60000200AF08FC088C050E8192E1522880FE9
:10140600991F9527550F879550E8072E0522660FD9
:10141600771F7527550F67950895689401C0E8945E
:10142600309760407040B1F0002426F0772312F424
:101436000094E6DE172E7EE1112032F07A95EE0F4B
:10144600FF1F661F111CF9CFEF2FF62F612D5F933B
:10145600C1DF5F9108954F93AF01FD01DA01AB0142
:10146600BC01CA01402D012C142E4F910895EA0F9C
:10147600FB1F681F0895E095F0956095EF5FFF4F9D
:101486006F4F08955F93B8DF903839F1703821F1C6
:10149600572F591B13F112F4DEDFFACF583118F02B
:1014A600AA27BB278827583028F0AB2FB82F8827C4
:1014B6005850F9CF552329F08695B795A7955A9593
:1014C600D9F7502D512562F0D2DF38F46795F7959C
:1014D600E795739513F41EC0BEDF7CDF5F91089518
:1014E600EA1BFB0B680B51F010F40094C4DF662373
:1014F600A2F3EE0FFF1F661F7A95CBF7EE27FF27A5
:10150600662777275F910895EFEFFFEF6FE77FEF8D
:101516005F910895EFEFFFEF6FE77FE75F91089523
:101526005F936ADF703851F3903841F301240894D1
:10153600791F23F41CF300203AF3ECCF0F921F938C
:101546002F933F934F93112722279927689FA00136
:101556008F9F302D410D591F6B9F300D411D591F17
:101566008E9F27D0BF9F25D06A9F23D0BE9F1DD0B8
:10157600AF9F1BD0AE9F110D291F391F491F591F41
:10158600E32FF42F652F522F4F913F912F911F91EB
:101596000F9066232AF0550FEE1FFF1F661F02C02D
:1015A60073954BF20DDF5F910895100D211D391FC4
:1015B60002C0200D311D491F591F089599239AF025
:1015C600772342F0971748F029F4AE17BF0786072E
:1015D60020F031F09894889408959894089408958A
:1015E6001894889408957723C2F7971798F3A9F764
:1015F600EA17FB07680788F399F3ECCF309760404A
:10160600704008955A934A933A932A931A930A93E9
:1016160008955D814C813B812A8119810881089555
:00000001FF
